{
  "_format": "hh-sol-artifact-1",
  "contractName": "HealthVerse",
  "sourceName": "contracts/core/HealthVerse.sol",
  "abi": [
    {
      "inputs": [
        {
          "internalType": "address",
          "name": "_healthToken",
          "type": "address"
        },
        {
          "internalType": "address",
          "name": "_oracle",
          "type": "address"
        }
      ],
      "stateMutability": "nonpayable",
      "type": "constructor"
    },
    {
      "inputs": [
        {
          "internalType": "address",
          "name": "owner",
          "type": "address"
        }
      ],
      "name": "OwnableInvalidOwner",
      "type": "error"
    },
    {
      "inputs": [
        {
          "internalType": "address",
          "name": "account",
          "type": "address"
        }
      ],
      "name": "OwnableUnauthorizedAccount",
      "type": "error"
    },
    {
      "anonymous": false,
      "inputs": [
        {
          "indexed": false,
          "internalType": "bool",
          "name": "paused",
          "type": "bool"
        }
      ],
      "name": "ContractPaused",
      "type": "event"
    },
    {
      "anonymous": false,
      "inputs": [
        {
          "indexed": true,
          "internalType": "address",
          "name": "token",
          "type": "address"
        },
        {
          "indexed": false,
          "internalType": "uint256",
          "name": "amount",
          "type": "uint256"
        },
        {
          "indexed": false,
          "internalType": "address",
          "name": "to",
          "type": "address"
        }
      ],
      "name": "EmergencyWithdraw",
      "type": "event"
    },
    {
      "anonymous": false,
      "inputs": [
        {
          "indexed": true,
          "internalType": "address",
          "name": "user",
          "type": "address"
        },
        {
          "indexed": false,
          "internalType": "uint64",
          "name": "steps",
          "type": "uint64"
        },
        {
          "indexed": false,
          "internalType": "uint64",
          "name": "calories",
          "type": "uint64"
        },
        {
          "indexed": false,
          "internalType": "uint64",
          "name": "date",
          "type": "uint64"
        }
      ],
      "name": "HealthDataAdded",
      "type": "event"
    },
    {
      "anonymous": false,
      "inputs": [
        {
          "indexed": false,
          "internalType": "bool",
          "name": "required",
          "type": "bool"
        }
      ],
      "name": "OracleVerificationToggled",
      "type": "event"
    },
    {
      "anonymous": false,
      "inputs": [
        {
          "indexed": true,
          "internalType": "address",
          "name": "previousOwner",
          "type": "address"
        },
        {
          "indexed": true,
          "internalType": "address",
          "name": "newOwner",
          "type": "address"
        }
      ],
      "name": "OwnershipTransferred",
      "type": "event"
    },
    {
      "anonymous": false,
      "inputs": [
        {
          "indexed": true,
          "internalType": "address",
          "name": "user",
          "type": "address"
        },
        {
          "indexed": false,
          "internalType": "uint64",
          "name": "rewardAmount",
          "type": "uint64"
        },
        {
          "indexed": false,
          "internalType": "uint64",
          "name": "date",
          "type": "uint64"
        }
      ],
      "name": "RewardClaimed",
      "type": "event"
    },
    {
      "anonymous": false,
      "inputs": [
        {
          "indexed": true,
          "internalType": "address",
          "name": "user",
          "type": "address"
        }
      ],
      "name": "UserBanned",
      "type": "event"
    },
    {
      "inputs": [],
      "name": "DAILY_GOAL_CALORIES",
      "outputs": [
        {
          "internalType": "uint64",
          "name": "",
          "type": "uint64"
        }
      ],
      "stateMutability": "view",
      "type": "function"
    },
    {
      "inputs": [],
      "name": "DAILY_GOAL_STEPS",
      "outputs": [
        {
          "internalType": "uint64",
          "name": "",
          "type": "uint64"
        }
      ],
      "stateMutability": "view",
      "type": "function"
    },
    {
      "inputs": [],
      "name": "REWARD_AMOUNT",
      "outputs": [
        {
          "internalType": "uint64",
          "name": "",
          "type": "uint64"
        }
      ],
      "stateMutability": "view",
      "type": "function"
    },
    {
      "inputs": [
        {
          "internalType": "uint64",
          "name": "_steps",
          "type": "uint64"
        },
        {
          "internalType": "uint64",
          "name": "_calories",
          "type": "uint64"
        },
        {
          "internalType": "uint64",
          "name": "_heartRate",
          "type": "uint64"
        },
        {
          "internalType": "bytes",
          "name": "_signature",
          "type": "bytes"
        }
      ],
      "name": "addHealthData",
      "outputs": [],
      "stateMutability": "nonpayable",
      "type": "function"
    },
    {
      "inputs": [
        {
          "internalType": "address",
          "name": "_user",
          "type": "address"
        }
      ],
      "name": "banUser",
      "outputs": [],
      "stateMutability": "nonpayable",
      "type": "function"
    },
    {
      "inputs": [
        {
          "internalType": "address",
          "name": "",
          "type": "address"
        }
      ],
      "name": "bannedUsers",
      "outputs": [
        {
          "internalType": "bool",
          "name": "",
          "type": "bool"
        }
      ],
      "stateMutability": "view",
      "type": "function"
    },
    {
      "inputs": [
        {
          "internalType": "uint64",
          "name": "_date",
          "type": "uint64"
        }
      ],
      "name": "claimReward",
      "outputs": [],
      "stateMutability": "nonpayable",
      "type": "function"
    },
    {
      "inputs": [],
      "name": "contractPaused",
      "outputs": [
        {
          "internalType": "bool",
          "name": "",
          "type": "bool"
        }
      ],
      "stateMutability": "view",
      "type": "function"
    },
    {
      "inputs": [
        {
          "internalType": "address",
          "name": "_token",
          "type": "address"
        },
        {
          "internalType": "uint256",
          "name": "_amount",
          "type": "uint256"
        }
      ],
      "name": "emergencyWithdrawToken",
      "outputs": [],
      "stateMutability": "nonpayable",
      "type": "function"
    },
    {
      "inputs": [],
      "name": "getContractAddresses",
      "outputs": [
        {
          "internalType": "address",
          "name": "tokenAddress",
          "type": "address"
        },
        {
          "internalType": "address",
          "name": "oracleAddress",
          "type": "address"
        }
      ],
      "stateMutability": "view",
      "type": "function"
    },
    {
      "inputs": [
        {
          "internalType": "address",
          "name": "_user",
          "type": "address"
        },
        {
          "internalType": "uint64",
          "name": "_date",
          "type": "uint64"
        }
      ],
      "name": "getDailyData",
      "outputs": [
        {
          "internalType": "uint64",
          "name": "steps",
          "type": "uint64"
        },
        {
          "internalType": "uint64",
          "name": "calories",
          "type": "uint64"
        },
        {
          "internalType": "uint8",
          "name": "rewardStatus",
          "type": "uint8"
        },
        {
          "internalType": "bool",
          "name": "oracleVerified",
          "type": "bool"
        }
      ],
      "stateMutability": "view",
      "type": "function"
    },
    {
      "inputs": [
        {
          "internalType": "address",
          "name": "_user",
          "type": "address"
        }
      ],
      "name": "getTodayProgress",
      "outputs": [
        {
          "internalType": "uint64",
          "name": "steps",
          "type": "uint64"
        },
        {
          "internalType": "uint64",
          "name": "calories",
          "type": "uint64"
        },
        {
          "internalType": "bool",
          "name": "stepsGoalReached",
          "type": "bool"
        },
        {
          "internalType": "bool",
          "name": "caloriesGoalReached",
          "type": "bool"
        },
        {
          "internalType": "bool",
          "name": "canClaimReward",
          "type": "bool"
        },
        {
          "internalType": "bool",
          "name": "oracleVerified",
          "type": "bool"
        }
      ],
      "stateMutability": "view",
      "type": "function"
    },
    {
      "inputs": [
        {
          "internalType": "address",
          "name": "_user",
          "type": "address"
        }
      ],
      "name": "getUserStatus",
      "outputs": [
        {
          "internalType": "bool",
          "name": "isBanned",
          "type": "bool"
        },
        {
          "internalType": "uint64",
          "name": "lastActive",
          "type": "uint64"
        },
        {
          "internalType": "bool",
          "name": "isContractPaused",
          "type": "bool"
        },
        {
          "internalType": "bool",
          "name": "oracleRequired",
          "type": "bool"
        }
      ],
      "stateMutability": "view",
      "type": "function"
    },
    {
      "inputs": [],
      "name": "googleFitOracle",
      "outputs": [
        {
          "internalType": "contract IGoogleFitOracle",
          "name": "",
          "type": "address"
        }
      ],
      "stateMutability": "view",
      "type": "function"
    },
    {
      "inputs": [],
      "name": "healthToken",
      "outputs": [
        {
          "internalType": "contract IHealthToken",
          "name": "",
          "type": "address"
        }
      ],
      "stateMutability": "view",
      "type": "function"
    },
    {
      "inputs": [
        {
          "internalType": "address",
          "name": "",
          "type": "address"
        }
      ],
      "name": "lastActivityDate",
      "outputs": [
        {
          "internalType": "uint64",
          "name": "",
          "type": "uint64"
        }
      ],
      "stateMutability": "view",
      "type": "function"
    },
    {
      "inputs": [],
      "name": "owner",
      "outputs": [
        {
          "internalType": "address",
          "name": "",
          "type": "address"
        }
      ],
      "stateMutability": "view",
      "type": "function"
    },
    {
      "inputs": [],
      "name": "pauseContract",
      "outputs": [],
      "stateMutability": "nonpayable",
      "type": "function"
    },
    {
      "inputs": [],
      "name": "renounceOwnership",
      "outputs": [],
      "stateMutability": "nonpayable",
      "type": "function"
    },
    {
      "inputs": [],
      "name": "requireOracleVerification",
      "outputs": [
        {
          "internalType": "bool",
          "name": "",
          "type": "bool"
        }
      ],
      "stateMutability": "view",
      "type": "function"
    },
    {
      "inputs": [
        {
          "internalType": "address",
          "name": "_token",
          "type": "address"
        }
      ],
      "name": "setHealthToken",
      "outputs": [],
      "stateMutability": "nonpayable",
      "type": "function"
    },
    {
      "inputs": [
        {
          "internalType": "address",
          "name": "_oracle",
          "type": "address"
        }
      ],
      "name": "setOracle",
      "outputs": [],
      "stateMutability": "nonpayable",
      "type": "function"
    },
    {
      "inputs": [
        {
          "internalType": "bool",
          "name": "_required",
          "type": "bool"
        }
      ],
      "name": "toggleOracleVerification",
      "outputs": [],
      "stateMutability": "nonpayable",
      "type": "function"
    },
    {
      "inputs": [
        {
          "internalType": "address",
          "name": "newOwner",
          "type": "address"
        }
      ],
      "name": "transferOwnership",
      "outputs": [],
      "stateMutability": "nonpayable",
      "type": "function"
    },
    {
      "inputs": [
        {
          "internalType": "address",
          "name": "_user",
          "type": "address"
        }
      ],
      "name": "unbanUser",
      "outputs": [],
      "stateMutability": "nonpayable",
      "type": "function"
    },
    {
      "inputs": [],
      "name": "unpauseContract",
      "outputs": [],
      "stateMutability": "nonpayable",
      "type": "function"
    },
    {
      "inputs": [
        {
          "internalType": "address",
          "name": "",
          "type": "address"
        },
        {
          "internalType": "uint64",
          "name": "",
          "type": "uint64"
        }
      ],
      "name": "userDailyData",
      "outputs": [
        {
          "internalType": "uint64",
          "name": "totalSteps",
          "type": "uint64"
        },
        {
          "internalType": "uint64",
          "name": "totalCalories",
          "type": "uint64"
        },
        {
          "internalType": "uint64",
          "name": "date",
          "type": "uint64"
        },
        {
          "internalType": "uint8",
          "name": "rewardClaimed",
          "type": "uint8"
        },
        {
          "internalType": "bool",
          "name": "oracleVerified",
          "type": "bool"
        }
      ],
      "stateMutability": "view",
      "type": "function"
    }
  ],
  "bytecode": "0x60e060405261177067ffffffffffffffff1660809067ffffffffffffffff168152506107d067ffffffffffffffff1660a09067ffffffffffffffff16815250678ac7230489e8000067ffffffffffffffff1660c09067ffffffffffffffff1681525034801561006d57600080fd5b50604051613426380380613426833981810160405281019061008f91906102dd565b33600073ffffffffffffffffffffffffffffffffffffffff168173ffffffffffffffffffffffffffffffffffffffff16036101025760006040517f1e4fbdf70000000000000000000000000000000000000000000000000000000081526004016100f9919061032c565b60405180910390fd5b610111816101b660201b60201c565b5081600160006101000a81548173ffffffffffffffffffffffffffffffffffffffff021916908373ffffffffffffffffffffffffffffffffffffffff16021790555080600260006101000a81548173ffffffffffffffffffffffffffffffffffffffff021916908373ffffffffffffffffffffffffffffffffffffffff1602179055506000600660016101000a81548160ff0219169083151502179055505050610347565b60008060009054906101000a900473ffffffffffffffffffffffffffffffffffffffff169050816000806101000a81548173ffffffffffffffffffffffffffffffffffffffff021916908373ffffffffffffffffffffffffffffffffffffffff1602179055508173ffffffffffffffffffffffffffffffffffffffff168173ffffffffffffffffffffffffffffffffffffffff167f8be0079c531659141344cd1fd0a4f28419497f9722a3daafe3b4186f6b6457e060405160405180910390a35050565b600080fd5b600073ffffffffffffffffffffffffffffffffffffffff82169050919050565b60006102aa8261027f565b9050919050565b6102ba8161029f565b81146102c557600080fd5b50565b6000815190506102d7816102b1565b92915050565b600080604083850312156102f4576102f361027a565b5b6000610302858286016102c8565b9250506020610313858286016102c8565b9150509250929050565b6103268161029f565b82525050565b6000602082019050610341600083018461031d565b92915050565b60805160a05160c0516130716103b56000396000818161186b01528181611cda01528181611d3d0152611df60152600081816105080152818161092f01528181611a5b0152611db80152600081816108a0015281816112f301528181611a210152611d7901526130716000f3fe608060405234801561001057600080fd5b50600436106101a95760003560e01c8063953874d2116100f9578063bd5a8c5b11610097578063d62db2ec11610071578063d62db2ec14610452578063de29167b14610482578063ea0d5dcd146104b7578063f2fde38b146104ea576101a9565b8063bd5a8c5b146103e2578063c6b0ac8514610416578063cf84944214610434576101a9565b8063b33712c5116100d3578063b33712c51461036b578063b5856eac14610375578063babf304814610391578063badc0850146103af576101a9565b8063953874d2146103125780639dd4772414610331578063a4c3b0911461034f576101a9565b80636759647a116101665780638988d078116101405780638988d0781461028a5780638a67456a146102ba5780638da5cb5b146102d85780638eddcc74146102f6576101a9565b80636759647a14610248578063715018a6146102645780637adbf9731461026e576101a9565b80630af585cb146101ae57806310d86b1f146101cc57806339f08251146101e85780633d8cca7914610206578063439766ce146102225780634d12b6951461022c575b600080fd5b6101b6610506565b6040516101c39190611f16565b60405180910390f35b6101e660048036038101906101e19190611fa3565b61052a565b005b6101f06105d0565b6040516101fd9190611feb565b60405180910390f35b610220600480360381019061021b9190612032565b6105e3565b005b61022a61063f565b005b61024660048036038101906102419190611fa3565b61069c565b005b610262600480360381019061025d919061208b565b6106ff565b005b61026c610c07565b005b61028860048036038101906102839190611fa3565b610c1b565b005b6102a4600480360381019061029f9190611fa3565b610c67565b6040516102b19190611feb565b60405180910390f35b6102c2610c87565b6040516102cf9190611feb565b60405180910390f35b6102e0610c9a565b6040516102ed91906120c7565b60405180910390f35b610310600480360381019061030b9190612228565b610cc3565b005b61031a6112a0565b6040516103289291906122ab565b60405180910390f35b6103396112f1565b6040516103469190611f16565b60405180910390f35b6103696004803603810190610364919061230a565b611315565b005b61037361156e565b005b61038f600480360381019061038a9190611fa3565b6115cb565b005b610399611617565b6040516103a691906123a9565b60405180910390f35b6103c960048036038101906103c491906123c4565b61163d565b6040516103d99493929190612420565b60405180910390f35b6103fc60048036038101906103f791906123c4565b6117aa565b60405161040d959493929190612465565b60405180910390f35b61041e611843565b60405161042b91906124d9565b60405180910390f35b61043c611869565b6040516104499190611f16565b60405180910390f35b61046c60048036038101906104679190611fa3565b61188d565b6040516104799190611f16565b60405180910390f35b61049c60048036038101906104979190611fa3565b6118b4565b6040516104ae969594939291906124f4565b60405180910390f35b6104d160048036038101906104cc9190611fa3565b611ac4565b6040516104e19493929190612555565b60405180910390f35b61050460048036038101906104ff9190611fa3565b611b9a565b005b7f000000000000000000000000000000000000000000000000000000000000000081565b610532611c20565b6001600560008373ffffffffffffffffffffffffffffffffffffffff1673ffffffffffffffffffffffffffffffffffffffff16815260200190815260200160002060006101000a81548160ff0219169083151502179055508073ffffffffffffffffffffffffffffffffffffffff167f8f411ad66fd8225d9c3c7c72fd2429139958913fa5c5114dce1c984e069a4f6960405160405180910390a250565b600660019054906101000a900460ff1681565b6105eb611c20565b80600660016101000a81548160ff0219169083151502179055507f9b68dfc3b93bb25129cb08062895b38444747e7c24735605e1abe49333abf65f816040516106349190611feb565b60405180910390a150565b610647611c20565b6001600660006101000a81548160ff0219169083151502179055507f752d7e161ff5146f80e3820893176eb40532811e5e20400dfdde57455213706a60016040516106929190611feb565b60405180910390a1565b6106a4611c20565b6000600560008373ffffffffffffffffffffffffffffffffffffffff1673ffffffffffffffffffffffffffffffffffffffff16815260200190815260200160002060006101000a81548160ff02191690831515021790555050565b600660009054906101000a900460ff161561074f576040517f08c379a0000000000000000000000000000000000000000000000000000000008152600401610746906125f7565b60405180910390fd5b600560003373ffffffffffffffffffffffffffffffffffffffff1673ffffffffffffffffffffffffffffffffffffffff16815260200190815260200160002060009054906101000a900460ff16156107dc576040517f08c379a00000000000000000000000000000000000000000000000000000000081526004016107d390612663565b60405180910390fd5b62015180426107eb91906126e1565b8167ffffffffffffffff1610610836576040517f08c379a000000000000000000000000000000000000000000000000000000000815260040161082d9061275e565b60405180910390fd5b6000600360003373ffffffffffffffffffffffffffffffffffffffff1673ffffffffffffffffffffffffffffffffffffffff16815260200190815260200160002060008367ffffffffffffffff1667ffffffffffffffff16815260200190815260200160002090507f000000000000000000000000000000000000000000000000000000000000000067ffffffffffffffff168160000160009054906101000a900467ffffffffffffffff1667ffffffffffffffff16101561092d576040517f08c379a0000000000000000000000000000000000000000000000000000000008152600401610924906127ca565b60405180910390fd5b7f000000000000000000000000000000000000000000000000000000000000000067ffffffffffffffff168160000160089054906101000a900467ffffffffffffffff1667ffffffffffffffff1610156109bc576040517f08c379a00000000000000000000000000000000000000000000000000000000081526004016109b390612836565b60405180910390fd5b60008160000160189054906101000a900460ff1660ff1614610a13576040517f08c379a0000000000000000000000000000000000000000000000000000000008152600401610a0a906128a2565b60405180910390fd5b600660019054906101000a900460ff1615610a7a578060000160199054906101000a900460ff16610a79576040517f08c379a0000000000000000000000000000000000000000000000000000000008152600401610a709061290e565b60405180910390fd5b5b60018160000160186101000a81548160ff021916908360ff1602179055506000610ad48260000160009054906101000a900467ffffffffffffffff168360000160089054906101000a900467ffffffffffffffff16611ca7565b905060008167ffffffffffffffff1611610b23576040517f08c379a0000000000000000000000000000000000000000000000000000000008152600401610b1a9061297a565b60405180910390fd5b600160009054906101000a900473ffffffffffffffffffffffffffffffffffffffff1673ffffffffffffffffffffffffffffffffffffffff16636a20de9233836040518363ffffffff1660e01b8152600401610b809291906129cb565b600060405180830381600087803b158015610b9a57600080fd5b505af1158015610bae573d6000803e3d6000fd5b505050503373ffffffffffffffffffffffffffffffffffffffff167f8ae63c70b0b369ab5bcfd750632fb339b7a09ea17120104258094ea779aab2398285604051610bfa9291906129f4565b60405180910390a2505050565b610c0f611c20565b610c196000611e27565b565b610c23611c20565b80600260006101000a81548173ffffffffffffffffffffffffffffffffffffffff021916908373ffffffffffffffffffffffffffffffffffffffff16021790555050565b60056020528060005260406000206000915054906101000a900460ff1681565b600660009054906101000a900460ff1681565b60008060009054906101000a900473ffffffffffffffffffffffffffffffffffffffff16905090565b600660009054906101000a900460ff1615610d13576040517f08c379a0000000000000000000000000000000000000000000000000000000008152600401610d0a906125f7565b60405180910390fd5b600560003373ffffffffffffffffffffffffffffffffffffffff1673ffffffffffffffffffffffffffffffffffffffff16815260200190815260200160002060009054906101000a900460ff1615610da0576040517f08c379a0000000000000000000000000000000000000000000000000000000008152600401610d9790612663565b60405180910390fd5b60288267ffffffffffffffff1610158015610dc6575060dc8267ffffffffffffffff1611155b610e05576040517f08c379a0000000000000000000000000000000000000000000000000000000008152600401610dfc90612a69565b60405180910390fd5b61c3508467ffffffffffffffff161115610e54576040517f08c379a0000000000000000000000000000000000000000000000000000000008152600401610e4b90612ad5565b60405180910390fd5b614e208367ffffffffffffffff161115610ea3576040517f08c379a0000000000000000000000000000000000000000000000000000000008152600401610e9a90612b41565b60405180910390fd5b60006201518042610eb491906126e1565b90508467ffffffffffffffff1685600360003373ffffffffffffffffffffffffffffffffffffffff1673ffffffffffffffffffffffffffffffffffffffff16815260200190815260200160002060008467ffffffffffffffff1667ffffffffffffffff16815260200190815260200160002060000160009054906101000a900467ffffffffffffffff16610f489190612b61565b67ffffffffffffffff161015610f93576040517f08c379a0000000000000000000000000000000000000000000000000000000008152600401610f8a90612be9565b60405180910390fd5b6000600360003373ffffffffffffffffffffffffffffffffffffffff1673ffffffffffffffffffffffffffffffffffffffff16815260200190815260200160002060008367ffffffffffffffff1667ffffffffffffffff1681526020019081526020016000209050600660019054906101000a900460ff161561111b576000600260009054906101000a900473ffffffffffffffffffffffffffffffffffffffff1673ffffffffffffffffffffffffffffffffffffffff1663a9cea48033898989428a6040518763ffffffff1660e01b815260040161107796959493929190612c88565b6020604051808303816000875af1158015611096573d6000803e3d6000fd5b505050506040513d601f19601f820116820180604052508101906110ba9190612d05565b9050806110fc576040517f08c379a00000000000000000000000000000000000000000000000000000000081526004016110f390612d7e565b60405180910390fd5b60018260000160196101000a81548160ff021916908315150217905550505b858160000160008282829054906101000a900467ffffffffffffffff166111429190612b61565b92506101000a81548167ffffffffffffffff021916908367ffffffffffffffff160217905550848160000160088282829054906101000a900467ffffffffffffffff1661118f9190612b61565b92506101000a81548167ffffffffffffffff021916908367ffffffffffffffff160217905550818160000160106101000a81548167ffffffffffffffff021916908367ffffffffffffffff16021790555081600460003373ffffffffffffffffffffffffffffffffffffffff1673ffffffffffffffffffffffffffffffffffffffff16815260200190815260200160002060006101000a81548167ffffffffffffffff021916908367ffffffffffffffff1602179055503373ffffffffffffffffffffffffffffffffffffffff167fa57a8c27309917dedddd0cf16f30b2c43e2f1fc3606cc55f65fe6ecbcb71897c87878560405161129093929190612d9e565b60405180910390a2505050505050565b600080600160009054906101000a900473ffffffffffffffffffffffffffffffffffffffff16600260009054906101000a900473ffffffffffffffffffffffffffffffffffffffff16915091509091565b7f000000000000000000000000000000000000000000000000000000000000000081565b61131d611c20565b600073ffffffffffffffffffffffffffffffffffffffff168273ffffffffffffffffffffffffffffffffffffffff160361138c576040517f08c379a000000000000000000000000000000000000000000000000000000000815260040161138390612e21565b60405180910390fd5b600081116113cf576040517f08c379a00000000000000000000000000000000000000000000000000000000081526004016113c690612e8d565b60405180910390fd5b60008273ffffffffffffffffffffffffffffffffffffffff166113f0610c9a565b83604051602401611402929190612ebc565b6040516020818303038152906040527fa9059cbb000000000000000000000000000000000000000000000000000000007bffffffffffffffffffffffffffffffffffffffffffffffffffffffff19166020820180517bffffffffffffffffffffffffffffffffffffffffffffffffffffffff838183161783525050505060405161148c9190612f21565b6000604051808303816000865af19150503d80600081146114c9576040519150601f19603f3d011682016040523d82523d6000602084013e6114ce565b606091505b5050905080611512576040517f08c379a000000000000000000000000000000000000000000000000000000000815260040161150990612f84565b60405180910390fd5b8273ffffffffffffffffffffffffffffffffffffffff167faaeda929aa102e867049528ec7cd2499e3a2f8846e736ae7935f234dfbf500d983611553610c9a565b604051611561929190612fa4565b60405180910390a2505050565b611576611c20565b6000600660006101000a81548160ff0219169083151502179055507f752d7e161ff5146f80e3820893176eb40532811e5e20400dfdde57455213706a60006040516115c19190611feb565b60405180910390a1565b6115d3611c20565b80600160006101000a81548173ffffffffffffffffffffffffffffffffffffffff021916908373ffffffffffffffffffffffffffffffffffffffff16021790555050565b600260009054906101000a900473ffffffffffffffffffffffffffffffffffffffff1681565b6000806000806000600360008873ffffffffffffffffffffffffffffffffffffffff1673ffffffffffffffffffffffffffffffffffffffff16815260200190815260200160002060008767ffffffffffffffff1667ffffffffffffffff1681526020019081526020016000206040518060a00160405290816000820160009054906101000a900467ffffffffffffffff1667ffffffffffffffff1667ffffffffffffffff1681526020016000820160089054906101000a900467ffffffffffffffff1667ffffffffffffffff1667ffffffffffffffff1681526020016000820160109054906101000a900467ffffffffffffffff1667ffffffffffffffff1667ffffffffffffffff1681526020016000820160189054906101000a900460ff1660ff1660ff1681526020016000820160199054906101000a900460ff1615151515815250509050806000015181602001518260600151836080015194509450945094505092959194509250565b6003602052816000526040600020602052806000526040600020600091509150508060000160009054906101000a900467ffffffffffffffff16908060000160089054906101000a900467ffffffffffffffff16908060000160109054906101000a900467ffffffffffffffff16908060000160189054906101000a900460ff16908060000160199054906101000a900460ff16905085565b600160009054906101000a900473ffffffffffffffffffffffffffffffffffffffff1681565b7f000000000000000000000000000000000000000000000000000000000000000081565b60046020528060005260406000206000915054906101000a900467ffffffffffffffff1681565b600080600080600080600062015180426118ce91906126e1565b90506000600360008a73ffffffffffffffffffffffffffffffffffffffff1673ffffffffffffffffffffffffffffffffffffffff16815260200190815260200160002060008367ffffffffffffffff1667ffffffffffffffff1681526020019081526020016000206040518060a00160405290816000820160009054906101000a900467ffffffffffffffff1667ffffffffffffffff1667ffffffffffffffff1681526020016000820160089054906101000a900467ffffffffffffffff1667ffffffffffffffff1667ffffffffffffffff1681526020016000820160109054906101000a900467ffffffffffffffff1667ffffffffffffffff1667ffffffffffffffff1681526020016000820160189054906101000a900460ff1660ff1660ff1681526020016000820160199054906101000a900460ff161515151581525050905080600001519750806020015196507f000000000000000000000000000000000000000000000000000000000000000067ffffffffffffffff168867ffffffffffffffff16101595507f000000000000000000000000000000000000000000000000000000000000000067ffffffffffffffff168767ffffffffffffffff1610159450858015611a9d5750845b8015611ab057506000816060015160ff16145b935080608001519250505091939550919395565b600080600080600560008673ffffffffffffffffffffffffffffffffffffffff1673ffffffffffffffffffffffffffffffffffffffff16815260200190815260200160002060009054906101000a900460ff16600460008773ffffffffffffffffffffffffffffffffffffffff1673ffffffffffffffffffffffffffffffffffffffff16815260200190815260200160002060009054906101000a900467ffffffffffffffff16600660009054906101000a900460ff16600660019054906101000a900460ff1693509350935093509193509193565b611ba2611c20565b600073ffffffffffffffffffffffffffffffffffffffff168173ffffffffffffffffffffffffffffffffffffffff1603611c145760006040517f1e4fbdf7000000000000000000000000000000000000000000000000000000008152600401611c0b91906120c7565b60405180910390fd5b611c1d81611e27565b50565b611c28611eeb565b73ffffffffffffffffffffffffffffffffffffffff16611c46610c9a565b73ffffffffffffffffffffffffffffffffffffffff1614611ca557611c69611eeb565b6040517f118cdaa7000000000000000000000000000000000000000000000000000000008152600401611c9c91906120c7565b60405180910390fd5b565b60006127108367ffffffffffffffff1610158015611cd15750610bb88267ffffffffffffffff1610155b15611d0a5760027f0000000000000000000000000000000000000000000000000000000000000000611d039190612fcd565b9050611e21565b611f408367ffffffffffffffff1610158015611d3257506109c48267ffffffffffffffff1610155b15611d7757600260037f0000000000000000000000000000000000000000000000000000000000000000611d669190612fcd565b611d70919061300a565b9050611e21565b7f000000000000000000000000000000000000000000000000000000000000000067ffffffffffffffff168367ffffffffffffffff1610158015611def57507f000000000000000000000000000000000000000000000000000000000000000067ffffffffffffffff168267ffffffffffffffff1610155b15611e1c577f00000000000000000000000000000000000000000000000000000000000000009050611e21565b600090505b92915050565b60008060009054906101000a900473ffffffffffffffffffffffffffffffffffffffff169050816000806101000a81548173ffffffffffffffffffffffffffffffffffffffff021916908373ffffffffffffffffffffffffffffffffffffffff1602179055508173ffffffffffffffffffffffffffffffffffffffff168173ffffffffffffffffffffffffffffffffffffffff167f8be0079c531659141344cd1fd0a4f28419497f9722a3daafe3b4186f6b6457e060405160405180910390a35050565b600033905090565b600067ffffffffffffffff82169050919050565b611f1081611ef3565b82525050565b6000602082019050611f2b6000830184611f07565b92915050565b6000604051905090565b600080fd5b600080fd5b600073ffffffffffffffffffffffffffffffffffffffff82169050919050565b6000611f7082611f45565b9050919050565b611f8081611f65565b8114611f8b57600080fd5b50565b600081359050611f9d81611f77565b92915050565b600060208284031215611fb957611fb8611f3b565b5b6000611fc784828501611f8e565b91505092915050565b60008115159050919050565b611fe581611fd0565b82525050565b60006020820190506120006000830184611fdc565b92915050565b61200f81611fd0565b811461201a57600080fd5b50565b60008135905061202c81612006565b92915050565b60006020828403121561204857612047611f3b565b5b60006120568482850161201d565b91505092915050565b61206881611ef3565b811461207357600080fd5b50565b6000813590506120858161205f565b92915050565b6000602082840312156120a1576120a0611f3b565b5b60006120af84828501612076565b91505092915050565b6120c181611f65565b82525050565b60006020820190506120dc60008301846120b8565b92915050565b600080fd5b600080fd5b6000601f19601f8301169050919050565b7f4e487b7100000000000000000000000000000000000000000000000000000000600052604160045260246000fd5b612135826120ec565b810181811067ffffffffffffffff82111715612154576121536120fd565b5b80604052505050565b6000612167611f31565b9050612173828261212c565b919050565b600067ffffffffffffffff821115612193576121926120fd565b5b61219c826120ec565b9050602081019050919050565b82818337600083830152505050565b60006121cb6121c684612178565b61215d565b9050828152602081018484840111156121e7576121e66120e7565b5b6121f28482856121a9565b509392505050565b600082601f83011261220f5761220e6120e2565b5b813561221f8482602086016121b8565b91505092915050565b6000806000806080858703121561224257612241611f3b565b5b600061225087828801612076565b945050602061226187828801612076565b935050604061227287828801612076565b925050606085013567ffffffffffffffff81111561229357612292611f40565b5b61229f878288016121fa565b91505092959194509250565b60006040820190506122c060008301856120b8565b6122cd60208301846120b8565b9392505050565b6000819050919050565b6122e7816122d4565b81146122f257600080fd5b50565b600081359050612304816122de565b92915050565b6000806040838503121561232157612320611f3b565b5b600061232f85828601611f8e565b9250506020612340858286016122f5565b9150509250929050565b6000819050919050565b600061236f61236a61236584611f45565b61234a565b611f45565b9050919050565b600061238182612354565b9050919050565b600061239382612376565b9050919050565b6123a381612388565b82525050565b60006020820190506123be600083018461239a565b92915050565b600080604083850312156123db576123da611f3b565b5b60006123e985828601611f8e565b92505060206123fa85828601612076565b9150509250929050565b600060ff82169050919050565b61241a81612404565b82525050565b60006080820190506124356000830187611f07565b6124426020830186611f07565b61244f6040830185612411565b61245c6060830184611fdc565b95945050505050565b600060a08201905061247a6000830188611f07565b6124876020830187611f07565b6124946040830186611f07565b6124a16060830185612411565b6124ae6080830184611fdc565b9695505050505050565b60006124c382612376565b9050919050565b6124d3816124b8565b82525050565b60006020820190506124ee60008301846124ca565b92915050565b600060c0820190506125096000830189611f07565b6125166020830188611f07565b6125236040830187611fdc565b6125306060830186611fdc565b61253d6080830185611fdc565b61254a60a0830184611fdc565b979650505050505050565b600060808201905061256a6000830187611fdc565b6125776020830186611f07565b6125846040830185611fdc565b6125916060830184611fdc565b95945050505050565b600082825260208201905092915050565b7f436f6e7472616374207061757365640000000000000000000000000000000000600082015250565b60006125e1600f8361259a565b91506125ec826125ab565b602082019050919050565b60006020820190508181036000830152612610816125d4565b9050919050565b7f557365722062616e6e6564000000000000000000000000000000000000000000600082015250565b600061264d600b8361259a565b915061265882612617565b602082019050919050565b6000602082019050818103600083015261267c81612640565b9050919050565b7f4e487b7100000000000000000000000000000000000000000000000000000000600052601260045260246000fd5b7f4e487b7100000000000000000000000000000000000000000000000000000000600052601160045260246000fd5b60006126ec826122d4565b91506126f7836122d4565b92508261270757612706612683565b5b828204905092915050565b7f43616e6e6f7420636c61696d20666f7220746f6461792f667574757265000000600082015250565b6000612748601d8361259a565b915061275382612712565b602082019050919050565b600060208201905081810360008301526127778161273b565b9050919050565b7f537465707320676f616c206e6f74207265616368656400000000000000000000600082015250565b60006127b460168361259a565b91506127bf8261277e565b602082019050919050565b600060208201905081810360008301526127e3816127a7565b9050919050565b7f43616c6f7269657320676f616c206e6f74207265616368656400000000000000600082015250565b600061282060198361259a565b915061282b826127ea565b602082019050919050565b6000602082019050818103600083015261284f81612813565b9050919050565b7f52657761726420616c726561647920636c61696d656400000000000000000000600082015250565b600061288c60168361259a565b915061289782612856565b602082019050919050565b600060208201905081810360008301526128bb8161287f565b9050919050565b7f44617461206e6f74206f7261636c652076657269666965640000000000000000600082015250565b60006128f860188361259a565b9150612903826128c2565b602082019050919050565b60006020820190508181036000830152612927816128eb565b9050919050565b7f4e6f2072657761726420617661696c61626c6500000000000000000000000000600082015250565b600061296460138361259a565b915061296f8261292e565b602082019050919050565b6000602082019050818103600083015261299381612957565b9050919050565b60006129b56129b06129ab84611ef3565b61234a565b6122d4565b9050919050565b6129c58161299a565b82525050565b60006040820190506129e060008301856120b8565b6129ed60208301846129bc565b9392505050565b6000604082019050612a096000830185611f07565b612a166020830184611f07565b9392505050565b7f496e76616c696420686561727420726174650000000000000000000000000000600082015250565b6000612a5360128361259a565b9150612a5e82612a1d565b602082019050919050565b60006020820190508181036000830152612a8281612a46565b9050919050565b7f537465707320746f6f2068696768000000000000000000000000000000000000600082015250565b6000612abf600e8361259a565b9150612aca82612a89565b602082019050919050565b60006020820190508181036000830152612aee81612ab2565b9050919050565b7f43616c6f7269657320746f6f2068696768000000000000000000000000000000600082015250565b6000612b2b60118361259a565b9150612b3682612af5565b602082019050919050565b60006020820190508181036000830152612b5a81612b1e565b9050919050565b6000612b6c82611ef3565b9150612b7783611ef3565b9250828201905067ffffffffffffffff811115612b9757612b966126b2565b5b92915050565b7f4f766572666c6f772070726f74656374696f6e00000000000000000000000000600082015250565b6000612bd360138361259a565b9150612bde82612b9d565b602082019050919050565b60006020820190508181036000830152612c0281612bc6565b9050919050565b600081519050919050565b600082825260208201905092915050565b60005b83811015612c43578082015181840152602081019050612c28565b60008484015250505050565b6000612c5a82612c09565b612c648185612c14565b9350612c74818560208601612c25565b612c7d816120ec565b840191505092915050565b600060c082019050612c9d60008301896120b8565b612caa6020830188611f07565b612cb76040830187611f07565b612cc46060830186611f07565b612cd16080830185611f07565b81810360a0830152612ce38184612c4f565b9050979650505050505050565b600081519050612cff81612006565b92915050565b600060208284031215612d1b57612d1a611f3b565b5b6000612d2984828501612cf0565b91505092915050565b7f4f7261636c6520766572696669636174696f6e206661696c6564000000000000600082015250565b6000612d68601a8361259a565b9150612d7382612d32565b602082019050919050565b60006020820190508181036000830152612d9781612d5b565b9050919050565b6000606082019050612db36000830186611f07565b612dc06020830185611f07565b612dcd6040830184611f07565b949350505050565b7f496e76616c696420746f6b656e20616464726573730000000000000000000000600082015250565b6000612e0b60158361259a565b9150612e1682612dd5565b602082019050919050565b60006020820190508181036000830152612e3a81612dfe565b9050919050565b7f416d6f756e74206d7573742062652067726561746572207468616e2030000000600082015250565b6000612e77601d8361259a565b9150612e8282612e41565b602082019050919050565b60006020820190508181036000830152612ea681612e6a565b9050919050565b612eb6816122d4565b82525050565b6000604082019050612ed160008301856120b8565b612ede6020830184612ead565b9392505050565b600081905092915050565b6000612efb82612c09565b612f058185612ee5565b9350612f15818560208601612c25565b80840191505092915050565b6000612f2d8284612ef0565b915081905092915050565b7f546f6b656e207472616e73666572206661696c65640000000000000000000000600082015250565b6000612f6e60158361259a565b9150612f7982612f38565b602082019050919050565b60006020820190508181036000830152612f9d81612f61565b9050919050565b6000604082019050612fb96000830185612ead565b612fc660208301846120b8565b9392505050565b6000612fd882611ef3565b9150612fe383611ef3565b9250828202612ff181611ef3565b9150808214613003576130026126b2565b5b5092915050565b600061301582611ef3565b915061302083611ef3565b9250826130305761302f612683565b5b82820490509291505056fea2646970667358221220ef135bcaf25c3510b0fb4f09fcae8eae94339a67eaa043379f8c34487e76115c64736f6c634300081c0033",
  "linkReferences": {},
  "deployedLinkReferences": {}
}