{
  "_format": "hh-sol-artifact-1",
  "contractName": "GoogleFitOracle",
  "sourceName": "contracts/oracles/GoogleFitOracle.sol",
  "abi": [
    {
      "inputs": [
        {
          "internalType": "address",
          "name": "_trustedSigner",
          "type": "address"
        }
      ],
      "stateMutability": "nonpayable",
      "type": "constructor"
    },
    {
      "inputs": [],
      "name": "ECDSAInvalidSignature",
      "type": "error"
    },
    {
      "inputs": [
        {
          "internalType": "uint256",
          "name": "length",
          "type": "uint256"
        }
      ],
      "name": "ECDSAInvalidSignatureLength",
      "type": "error"
    },
    {
      "inputs": [
        {
          "internalType": "bytes32",
          "name": "s",
          "type": "bytes32"
        }
      ],
      "name": "ECDSAInvalidSignatureS",
      "type": "error"
    },
    {
      "inputs": [
        {
          "internalType": "address",
          "name": "owner",
          "type": "address"
        }
      ],
      "name": "OwnableInvalidOwner",
      "type": "error"
    },
    {
      "inputs": [
        {
          "internalType": "address",
          "name": "account",
          "type": "address"
        }
      ],
      "name": "OwnableUnauthorizedAccount",
      "type": "error"
    },
    {
      "anonymous": false,
      "inputs": [
        {
          "indexed": true,
          "internalType": "address",
          "name": "user",
          "type": "address"
        },
        {
          "indexed": false,
          "internalType": "uint64",
          "name": "steps",
          "type": "uint64"
        },
        {
          "indexed": false,
          "internalType": "uint64",
          "name": "calories",
          "type": "uint64"
        },
        {
          "indexed": false,
          "internalType": "uint64",
          "name": "heartRate",
          "type": "uint64"
        },
        {
          "indexed": false,
          "internalType": "uint64",
          "name": "date",
          "type": "uint64"
        },
        {
          "indexed": false,
          "internalType": "address",
          "name": "verifier",
          "type": "address"
        }
      ],
      "name": "DataVerified",
      "type": "event"
    },
    {
      "anonymous": false,
      "inputs": [
        {
          "indexed": true,
          "internalType": "address",
          "name": "previousOwner",
          "type": "address"
        },
        {
          "indexed": true,
          "internalType": "address",
          "name": "newOwner",
          "type": "address"
        }
      ],
      "name": "OwnershipTransferred",
      "type": "event"
    },
    {
      "anonymous": false,
      "inputs": [
        {
          "indexed": true,
          "internalType": "address",
          "name": "oldSigner",
          "type": "address"
        },
        {
          "indexed": true,
          "internalType": "address",
          "name": "newSigner",
          "type": "address"
        }
      ],
      "name": "TrustedSignerUpdated",
      "type": "event"
    },
    {
      "anonymous": false,
      "inputs": [
        {
          "indexed": true,
          "internalType": "address",
          "name": "verifier",
          "type": "address"
        }
      ],
      "name": "VerifierAdded",
      "type": "event"
    },
    {
      "anonymous": false,
      "inputs": [
        {
          "indexed": true,
          "internalType": "address",
          "name": "verifier",
          "type": "address"
        }
      ],
      "name": "VerifierRemoved",
      "type": "event"
    },
    {
      "inputs": [
        {
          "internalType": "address",
          "name": "_verifier",
          "type": "address"
        }
      ],
      "name": "addVerifier",
      "outputs": [],
      "stateMutability": "nonpayable",
      "type": "function"
    },
    {
      "inputs": [
        {
          "internalType": "address",
          "name": "",
          "type": "address"
        }
      ],
      "name": "authorizedVerifiers",
      "outputs": [
        {
          "internalType": "bool",
          "name": "",
          "type": "bool"
        }
      ],
      "stateMutability": "view",
      "type": "function"
    },
    {
      "inputs": [],
      "name": "getTrustedSigner",
      "outputs": [
        {
          "internalType": "address",
          "name": "",
          "type": "address"
        }
      ],
      "stateMutability": "view",
      "type": "function"
    },
    {
      "inputs": [
        {
          "internalType": "address",
          "name": "_user",
          "type": "address"
        },
        {
          "internalType": "uint64",
          "name": "_date",
          "type": "uint64"
        }
      ],
      "name": "isDataVerified",
      "outputs": [
        {
          "internalType": "bool",
          "name": "",
          "type": "bool"
        }
      ],
      "stateMutability": "view",
      "type": "function"
    },
    {
      "inputs": [],
      "name": "owner",
      "outputs": [
        {
          "internalType": "address",
          "name": "",
          "type": "address"
        }
      ],
      "stateMutability": "view",
      "type": "function"
    },
    {
      "inputs": [
        {
          "internalType": "address",
          "name": "_verifier",
          "type": "address"
        }
      ],
      "name": "removeVerifier",
      "outputs": [],
      "stateMutability": "nonpayable",
      "type": "function"
    },
    {
      "inputs": [],
      "name": "renounceOwnership",
      "outputs": [],
      "stateMutability": "nonpayable",
      "type": "function"
    },
    {
      "inputs": [
        {
          "internalType": "address",
          "name": "_newSigner",
          "type": "address"
        }
      ],
      "name": "setTrustedSigner",
      "outputs": [],
      "stateMutability": "nonpayable",
      "type": "function"
    },
    {
      "inputs": [
        {
          "internalType": "address",
          "name": "newOwner",
          "type": "address"
        }
      ],
      "name": "transferOwnership",
      "outputs": [],
      "stateMutability": "nonpayable",
      "type": "function"
    },
    {
      "inputs": [],
      "name": "trustedSigner",
      "outputs": [
        {
          "internalType": "address",
          "name": "",
          "type": "address"
        }
      ],
      "stateMutability": "view",
      "type": "function"
    },
    {
      "inputs": [
        {
          "internalType": "address",
          "name": "",
          "type": "address"
        },
        {
          "internalType": "uint64",
          "name": "",
          "type": "uint64"
        }
      ],
      "name": "userVerifiedData",
      "outputs": [
        {
          "internalType": "uint64",
          "name": "steps",
          "type": "uint64"
        },
        {
          "internalType": "uint64",
          "name": "calories",
          "type": "uint64"
        },
        {
          "internalType": "uint64",
          "name": "heartRate",
          "type": "uint64"
        },
        {
          "internalType": "uint64",
          "name": "timestamp",
          "type": "uint64"
        },
        {
          "internalType": "bool",
          "name": "verified",
          "type": "bool"
        },
        {
          "internalType": "address",
          "name": "verifier",
          "type": "address"
        }
      ],
      "stateMutability": "view",
      "type": "function"
    },
    {
      "inputs": [
        {
          "internalType": "address",
          "name": "_user",
          "type": "address"
        },
        {
          "internalType": "uint64",
          "name": "_steps",
          "type": "uint64"
        },
        {
          "internalType": "uint64",
          "name": "_calories",
          "type": "uint64"
        },
        {
          "internalType": "uint64",
          "name": "_heartRate",
          "type": "uint64"
        },
        {
          "internalType": "uint64",
          "name": "_timestamp",
          "type": "uint64"
        },
        {
          "internalType": "bytes",
          "name": "_signature",
          "type": "bytes"
        }
      ],
      "name": "verifyHealthData",
      "outputs": [
        {
          "internalType": "bool",
          "name": "",
          "type": "bool"
        }
      ],
      "stateMutability": "nonpayable",
      "type": "function"
    }
  ],
  "bytecode": "0x608060405234801561001057600080fd5b50604051611e59380380611e59833981810160405281019061003291906102ea565b33600073ffffffffffffffffffffffffffffffffffffffff168173ffffffffffffffffffffffffffffffffffffffff16036100a55760006040517f1e4fbdf700000000000000000000000000000000000000000000000000000000815260040161009c9190610326565b60405180910390fd5b6100b4816101c360201b60201c565b50600073ffffffffffffffffffffffffffffffffffffffff168173ffffffffffffffffffffffffffffffffffffffff1603610124576040517f08c379a000000000000000000000000000000000000000000000000000000000815260040161011b9061039e565b60405180910390fd5b80600360006101000a81548173ffffffffffffffffffffffffffffffffffffffff021916908373ffffffffffffffffffffffffffffffffffffffff1602179055506001600260003373ffffffffffffffffffffffffffffffffffffffff1673ffffffffffffffffffffffffffffffffffffffff16815260200190815260200160002060006101000a81548160ff021916908315150217905550506103be565b60008060009054906101000a900473ffffffffffffffffffffffffffffffffffffffff169050816000806101000a81548173ffffffffffffffffffffffffffffffffffffffff021916908373ffffffffffffffffffffffffffffffffffffffff1602179055508173ffffffffffffffffffffffffffffffffffffffff168173ffffffffffffffffffffffffffffffffffffffff167f8be0079c531659141344cd1fd0a4f28419497f9722a3daafe3b4186f6b6457e060405160405180910390a35050565b600080fd5b600073ffffffffffffffffffffffffffffffffffffffff82169050919050565b60006102b78261028c565b9050919050565b6102c7816102ac565b81146102d257600080fd5b50565b6000815190506102e4816102be565b92915050565b600060208284031215610300576102ff610287565b5b600061030e848285016102d5565b91505092915050565b610320816102ac565b82525050565b600060208201905061033b6000830184610317565b92915050565b600082825260208201905092915050565b7f496e76616c6964207369676e6572206164647265737300000000000000000000600082015250565b6000610388601683610341565b915061039382610352565b602082019050919050565b600060208201905081810360008301526103b78161037b565b9050919050565b611a8c806103cd6000396000f3fe608060405234801561001057600080fd5b50600436106100b45760003560e01c80639a891716116100715780639a89171614610167578063a9cea48014610197578063ca2dfd0a146101c7578063f2fde38b146101e3578063f74d5480146101ff578063f96b2fc01461021d576100b4565b806319bfb5ff146100b95780634cb150a8146100d757806356a1c70114610107578063715018a6146101235780638da5cb5b1461012d5780639000b3d61461014b575b600080fd5b6100c1610252565b6040516100ce919061112c565b60405180910390f35b6100f160048036038101906100ec91906111c7565b61027c565b6040516100fe9190611222565b60405180910390f35b610121600480360381019061011c919061123d565b6102fb565b005b61012b610438565b005b61013561044c565b604051610142919061112c565b60405180910390f35b6101656004803603810190610160919061123d565b610475565b005b610181600480360381019061017c919061123d565b61051b565b60405161018e9190611222565b60405180910390f35b6101b160048036038101906101ac91906113b0565b61053b565b6040516101be9190611222565b60405180910390f35b6101e160048036038101906101dc919061123d565b610a6a565b005b6101fd60048036038101906101f8919061123d565b610b10565b005b610207610b96565b604051610214919061112c565b60405180910390f35b610237600480360381019061023291906111c7565b610bbc565b60405161024996959493929190611468565b60405180910390f35b6000600360009054906101000a900473ffffffffffffffffffffffffffffffffffffffff16905090565b6000600160008473ffffffffffffffffffffffffffffffffffffffff1673ffffffffffffffffffffffffffffffffffffffff16815260200190815260200160002060008367ffffffffffffffff1667ffffffffffffffff16815260200190815260200160002060010160009054906101000a900460ff16905092915050565b610303610c82565b600073ffffffffffffffffffffffffffffffffffffffff168173ffffffffffffffffffffffffffffffffffffffff1603610372576040517f08c379a000000000000000000000000000000000000000000000000000000000815260040161036990611526565b60405180910390fd5b6000600360009054906101000a900473ffffffffffffffffffffffffffffffffffffffff16905081600360006101000a81548173ffffffffffffffffffffffffffffffffffffffff021916908373ffffffffffffffffffffffffffffffffffffffff1602179055508173ffffffffffffffffffffffffffffffffffffffff168173ffffffffffffffffffffffffffffffffffffffff167f4a297cf5d32586f80d2b0708a39d2da1f46e6ae7722171e1c51dfd685b5b8aa860405160405180910390a35050565b610440610c82565b61044a6000610d09565b565b60008060009054906101000a900473ffffffffffffffffffffffffffffffffffffffff16905090565b61047d610c82565b6001600260008373ffffffffffffffffffffffffffffffffffffffff1673ffffffffffffffffffffffffffffffffffffffff16815260200190815260200160002060006101000a81548160ff0219169083151502179055508073ffffffffffffffffffffffffffffffffffffffff167f6d05492139c5ea989514a5d2150c028041e5c087e2a39967f67dc7d2655adb8160405160405180910390a250565b60026020528060005260406000206000915054906101000a900460ff1681565b6000600260003373ffffffffffffffffffffffffffffffffffffffff1673ffffffffffffffffffffffffffffffffffffffff16815260200190815260200160002060009054906101000a900460ff166105c9576040517f08c379a00000000000000000000000000000000000000000000000000000000081526004016105c090611592565b60405180910390fd5b600062015180846105da91906115e1565b905061c3508767ffffffffffffffff16111561062b576040517f08c379a00000000000000000000000000000000000000000000000000000000081526004016106229061165e565b60405180910390fd5b614e208667ffffffffffffffff16111561067a576040517f08c379a0000000000000000000000000000000000000000000000000000000008152600401610671906116ca565b60405180910390fd5b60288567ffffffffffffffff16101580156106a0575060dc8567ffffffffffffffff1611155b6106df576040517f08c379a00000000000000000000000000000000000000000000000000000000081526004016106d690611736565b60405180910390fd5b6041835114610723576040517f08c379a000000000000000000000000000000000000000000000000000000000815260040161071a906117a2565b60405180910390fd5b6000888888888860405160200161073e959493929190611840565b604051602081830303815290604052805190602001209050600061076182610dcd565b905060006107788683610e0390919063ffffffff16565b9050600360009054906101000a900473ffffffffffffffffffffffffffffffffffffffff1673ffffffffffffffffffffffffffffffffffffffff168173ffffffffffffffffffffffffffffffffffffffff161461080a576040517f08c379a0000000000000000000000000000000000000000000000000000000008152600401610801906118eb565b60405180910390fd5b6040518060c001604052808b67ffffffffffffffff1681526020018a67ffffffffffffffff1681526020018967ffffffffffffffff1681526020018867ffffffffffffffff1681526020016001151581526020013373ffffffffffffffffffffffffffffffffffffffff16815250600160008d73ffffffffffffffffffffffffffffffffffffffff1673ffffffffffffffffffffffffffffffffffffffff16815260200190815260200160002060008667ffffffffffffffff1667ffffffffffffffff16815260200190815260200160002060008201518160000160006101000a81548167ffffffffffffffff021916908367ffffffffffffffff16021790555060208201518160000160086101000a81548167ffffffffffffffff021916908367ffffffffffffffff16021790555060408201518160000160106101000a81548167ffffffffffffffff021916908367ffffffffffffffff16021790555060608201518160000160186101000a81548167ffffffffffffffff021916908367ffffffffffffffff16021790555060808201518160010160006101000a81548160ff02191690831515021790555060a08201518160010160016101000a81548173ffffffffffffffffffffffffffffffffffffffff021916908373ffffffffffffffffffffffffffffffffffffffff1602179055509050508a73ffffffffffffffffffffffffffffffffffffffff167f34f7e5bbd1d55dc2b935c61793fd57025ee6a3e9b18586b00983ed4fe31252838b8b8b8833604051610a5095949392919061190b565b60405180910390a260019450505050509695505050505050565b610a72610c82565b6000600260008373ffffffffffffffffffffffffffffffffffffffff1673ffffffffffffffffffffffffffffffffffffffff16815260200190815260200160002060006101000a81548160ff0219169083151502179055508073ffffffffffffffffffffffffffffffffffffffff167f44a3cd4eb5cc5748f6169df057b1cb2ae4c383e87cd94663c430e095d4cba42460405160405180910390a250565b610b18610c82565b600073ffffffffffffffffffffffffffffffffffffffff168173ffffffffffffffffffffffffffffffffffffffff1603610b8a5760006040517f1e4fbdf7000000000000000000000000000000000000000000000000000000008152600401610b81919061112c565b60405180910390fd5b610b9381610d09565b50565b600360009054906101000a900473ffffffffffffffffffffffffffffffffffffffff1681565b6001602052816000526040600020602052806000526040600020600091509150508060000160009054906101000a900467ffffffffffffffff16908060000160089054906101000a900467ffffffffffffffff16908060000160109054906101000a900467ffffffffffffffff16908060000160189054906101000a900467ffffffffffffffff16908060010160009054906101000a900460ff16908060010160019054906101000a900473ffffffffffffffffffffffffffffffffffffffff16905086565b610c8a610e2f565b73ffffffffffffffffffffffffffffffffffffffff16610ca861044c565b73ffffffffffffffffffffffffffffffffffffffff1614610d0757610ccb610e2f565b6040517f118cdaa7000000000000000000000000000000000000000000000000000000008152600401610cfe919061112c565b60405180910390fd5b565b60008060009054906101000a900473ffffffffffffffffffffffffffffffffffffffff169050816000806101000a81548173ffffffffffffffffffffffffffffffffffffffff021916908373ffffffffffffffffffffffffffffffffffffffff1602179055508173ffffffffffffffffffffffffffffffffffffffff168173ffffffffffffffffffffffffffffffffffffffff167f8be0079c531659141344cd1fd0a4f28419497f9722a3daafe3b4186f6b6457e060405160405180910390a35050565b60007f19457468657265756d205369676e6564204d6573736167653a0a33320000000060005281601c52603c6000209050919050565b600080600080610e138686610e37565b925092509250610e238282610e93565b82935050505092915050565b600033905090565b60008060006041845103610e7c5760008060006020870151925060408701519150606087015160001a9050610e6e88828585610ff7565b955095509550505050610e8c565b60006002855160001b9250925092505b9250925092565b60006003811115610ea757610ea661195e565b5b826003811115610eba57610eb961195e565b5b0315610ff35760016003811115610ed457610ed361195e565b5b826003811115610ee757610ee661195e565b5b03610f1e576040517ff645eedf00000000000000000000000000000000000000000000000000000000815260040160405180910390fd5b60026003811115610f3257610f3161195e565b5b826003811115610f4557610f4461195e565b5b03610f8a578060001c6040517ffce698f7000000000000000000000000000000000000000000000000000000008152600401610f8191906119a6565b60405180910390fd5b600380811115610f9d57610f9c61195e565b5b826003811115610fb057610faf61195e565b5b03610ff257806040517fd78bce0c000000000000000000000000000000000000000000000000000000008152600401610fe991906119da565b60405180910390fd5b5b5050565b60008060007f7fffffffffffffffffffffffffffffff5d576e7357a4501ddfe92f46681b20a08460001c11156110375760006003859250925092506110e1565b60006001888888886040516000815260200160405260405161105c9493929190611a11565b6020604051602081039080840390855afa15801561107e573d6000803e3d6000fd5b505050602060405103519050600073ffffffffffffffffffffffffffffffffffffffff168173ffffffffffffffffffffffffffffffffffffffff16036110d257600060016000801b935093509350506110e1565b8060008060001b935093509350505b9450945094915050565b600073ffffffffffffffffffffffffffffffffffffffff82169050919050565b6000611116826110eb565b9050919050565b6111268161110b565b82525050565b6000602082019050611141600083018461111d565b92915050565b6000604051905090565b600080fd5b600080fd5b6111648161110b565b811461116f57600080fd5b50565b6000813590506111818161115b565b92915050565b600067ffffffffffffffff82169050919050565b6111a481611187565b81146111af57600080fd5b50565b6000813590506111c18161119b565b92915050565b600080604083850312156111de576111dd611151565b5b60006111ec85828601611172565b92505060206111fd858286016111b2565b9150509250929050565b60008115159050919050565b61121c81611207565b82525050565b60006020820190506112376000830184611213565b92915050565b60006020828403121561125357611252611151565b5b600061126184828501611172565b91505092915050565b600080fd5b600080fd5b6000601f19601f8301169050919050565b7f4e487b7100000000000000000000000000000000000000000000000000000000600052604160045260246000fd5b6112bd82611274565b810181811067ffffffffffffffff821117156112dc576112db611285565b5b80604052505050565b60006112ef611147565b90506112fb82826112b4565b919050565b600067ffffffffffffffff82111561131b5761131a611285565b5b61132482611274565b9050602081019050919050565b82818337600083830152505050565b600061135361134e84611300565b6112e5565b90508281526020810184848401111561136f5761136e61126f565b5b61137a848285611331565b509392505050565b600082601f8301126113975761139661126a565b5b81356113a7848260208601611340565b91505092915050565b60008060008060008060c087890312156113cd576113cc611151565b5b60006113db89828a01611172565b96505060206113ec89828a016111b2565b95505060406113fd89828a016111b2565b945050606061140e89828a016111b2565b935050608061141f89828a016111b2565b92505060a087013567ffffffffffffffff8111156114405761143f611156565b5b61144c89828a01611382565b9150509295509295509295565b61146281611187565b82525050565b600060c08201905061147d6000830189611459565b61148a6020830188611459565b6114976040830187611459565b6114a46060830186611459565b6114b16080830185611213565b6114be60a083018461111d565b979650505050505050565b600082825260208201905092915050565b7f496e76616c6964207369676e6572206164647265737300000000000000000000600082015250565b60006115106016836114c9565b915061151b826114da565b602082019050919050565b6000602082019050818103600083015261153f81611503565b9050919050565b7f4e6f7420617574686f72697a6564207665726966696572000000000000000000600082015250565b600061157c6017836114c9565b915061158782611546565b602082019050919050565b600060208201905081810360008301526115ab8161156f565b9050919050565b7f4e487b7100000000000000000000000000000000000000000000000000000000600052601260045260246000fd5b60006115ec82611187565b91506115f783611187565b925082611607576116066115b2565b5b828204905092915050565b7f496e76616c696420737465707300000000000000000000000000000000000000600082015250565b6000611648600d836114c9565b915061165382611612565b602082019050919050565b600060208201905081810360008301526116778161163b565b9050919050565b7f496e76616c69642063616c6f7269657300000000000000000000000000000000600082015250565b60006116b46010836114c9565b91506116bf8261167e565b602082019050919050565b600060208201905081810360008301526116e3816116a7565b9050919050565b7f496e76616c696420686561727420726174650000000000000000000000000000600082015250565b60006117206012836114c9565b915061172b826116ea565b602082019050919050565b6000602082019050818103600083015261174f81611713565b9050919050565b7f496e76616c6964207369676e6174757265206c656e6774680000000000000000600082015250565b600061178c6018836114c9565b915061179782611756565b602082019050919050565b600060208201905081810360008301526117bb8161177f565b9050919050565b60008160601b9050919050565b60006117da826117c2565b9050919050565b60006117ec826117cf565b9050919050565b6118046117ff8261110b565b6117e1565b82525050565b60008160c01b9050919050565b60006118228261180a565b9050919050565b61183a61183582611187565b611817565b82525050565b600061184c82886117f3565b60148201915061185c8287611829565b60088201915061186c8286611829565b60088201915061187c8285611829565b60088201915061188c8284611829565b6008820191508190509695505050505050565b7f496e76616c6964207369676e6174757265000000000000000000000000000000600082015250565b60006118d56011836114c9565b91506118e08261189f565b602082019050919050565b60006020820190508181036000830152611904816118c8565b9050919050565b600060a0820190506119206000830188611459565b61192d6020830187611459565b61193a6040830186611459565b6119476060830185611459565b611954608083018461111d565b9695505050505050565b7f4e487b7100000000000000000000000000000000000000000000000000000000600052602160045260246000fd5b6000819050919050565b6119a08161198d565b82525050565b60006020820190506119bb6000830184611997565b92915050565b6000819050919050565b6119d4816119c1565b82525050565b60006020820190506119ef60008301846119cb565b92915050565b600060ff82169050919050565b611a0b816119f5565b82525050565b6000608082019050611a2660008301876119cb565b611a336020830186611a02565b611a4060408301856119cb565b611a4d60608301846119cb565b9594505050505056fea2646970667358221220947f1b9f645e8e8126c7727fbd9fada3f6610c10fc731a3a7396de118d33518164736f6c634300081c0033",
  "linkReferences": {},
  "deployedLinkReferences": {}
}