{
  "_format": "hh-sol-artifact-1",
  "contractName": "GoogleFitOracle",
  "sourceName": "contracts/oracles/GoogleFitOracle.sol",
  "abi": [
    {
      "inputs": [],
      "stateMutability": "nonpayable",
      "type": "constructor"
    },
    {
      "inputs": [
        {
          "internalType": "address",
          "name": "owner",
          "type": "address"
        }
      ],
      "name": "OwnableInvalidOwner",
      "type": "error"
    },
    {
      "inputs": [
        {
          "internalType": "address",
          "name": "account",
          "type": "address"
        }
      ],
      "name": "OwnableUnauthorizedAccount",
      "type": "error"
    },
    {
      "anonymous": false,
      "inputs": [
        {
          "indexed": true,
          "internalType": "address",
          "name": "user",
          "type": "address"
        },
        {
          "indexed": false,
          "internalType": "uint64",
          "name": "steps",
          "type": "uint64"
        },
        {
          "indexed": false,
          "internalType": "uint64",
          "name": "calories",
          "type": "uint64"
        },
        {
          "indexed": false,
          "internalType": "uint64",
          "name": "heartRate",
          "type": "uint64"
        },
        {
          "indexed": false,
          "internalType": "uint64",
          "name": "date",
          "type": "uint64"
        },
        {
          "indexed": false,
          "internalType": "address",
          "name": "verifier",
          "type": "address"
        }
      ],
      "name": "DataVerified",
      "type": "event"
    },
    {
      "anonymous": false,
      "inputs": [
        {
          "indexed": true,
          "internalType": "address",
          "name": "previousOwner",
          "type": "address"
        },
        {
          "indexed": true,
          "internalType": "address",
          "name": "newOwner",
          "type": "address"
        }
      ],
      "name": "OwnershipTransferred",
      "type": "event"
    },
    {
      "anonymous": false,
      "inputs": [
        {
          "indexed": true,
          "internalType": "address",
          "name": "verifier",
          "type": "address"
        }
      ],
      "name": "VerifierAdded",
      "type": "event"
    },
    {
      "anonymous": false,
      "inputs": [
        {
          "indexed": true,
          "internalType": "address",
          "name": "verifier",
          "type": "address"
        }
      ],
      "name": "VerifierRemoved",
      "type": "event"
    },
    {
      "inputs": [
        {
          "internalType": "address",
          "name": "_verifier",
          "type": "address"
        }
      ],
      "name": "addVerifier",
      "outputs": [],
      "stateMutability": "nonpayable",
      "type": "function"
    },
    {
      "inputs": [
        {
          "internalType": "address",
          "name": "",
          "type": "address"
        }
      ],
      "name": "authorizedVerifiers",
      "outputs": [
        {
          "internalType": "bool",
          "name": "",
          "type": "bool"
        }
      ],
      "stateMutability": "view",
      "type": "function"
    },
    {
      "inputs": [
        {
          "internalType": "address",
          "name": "_user",
          "type": "address"
        },
        {
          "internalType": "uint64",
          "name": "_date",
          "type": "uint64"
        }
      ],
      "name": "isDataVerified",
      "outputs": [
        {
          "internalType": "bool",
          "name": "",
          "type": "bool"
        }
      ],
      "stateMutability": "view",
      "type": "function"
    },
    {
      "inputs": [],
      "name": "owner",
      "outputs": [
        {
          "internalType": "address",
          "name": "",
          "type": "address"
        }
      ],
      "stateMutability": "view",
      "type": "function"
    },
    {
      "inputs": [
        {
          "internalType": "address",
          "name": "_verifier",
          "type": "address"
        }
      ],
      "name": "removeVerifier",
      "outputs": [],
      "stateMutability": "nonpayable",
      "type": "function"
    },
    {
      "inputs": [],
      "name": "renounceOwnership",
      "outputs": [],
      "stateMutability": "nonpayable",
      "type": "function"
    },
    {
      "inputs": [
        {
          "internalType": "address",
          "name": "newOwner",
          "type": "address"
        }
      ],
      "name": "transferOwnership",
      "outputs": [],
      "stateMutability": "nonpayable",
      "type": "function"
    },
    {
      "inputs": [
        {
          "internalType": "address",
          "name": "",
          "type": "address"
        },
        {
          "internalType": "uint64",
          "name": "",
          "type": "uint64"
        }
      ],
      "name": "userVerifiedData",
      "outputs": [
        {
          "internalType": "uint64",
          "name": "steps",
          "type": "uint64"
        },
        {
          "internalType": "uint64",
          "name": "calories",
          "type": "uint64"
        },
        {
          "internalType": "uint64",
          "name": "heartRate",
          "type": "uint64"
        },
        {
          "internalType": "uint64",
          "name": "timestamp",
          "type": "uint64"
        },
        {
          "internalType": "bool",
          "name": "verified",
          "type": "bool"
        },
        {
          "internalType": "address",
          "name": "verifier",
          "type": "address"
        }
      ],
      "stateMutability": "view",
      "type": "function"
    },
    {
      "inputs": [
        {
          "internalType": "address",
          "name": "_user",
          "type": "address"
        },
        {
          "internalType": "uint64",
          "name": "_steps",
          "type": "uint64"
        },
        {
          "internalType": "uint64",
          "name": "_calories",
          "type": "uint64"
        },
        {
          "internalType": "uint64",
          "name": "_heartRate",
          "type": "uint64"
        },
        {
          "internalType": "uint64",
          "name": "_timestamp",
          "type": "uint64"
        },
        {
          "internalType": "bytes",
          "name": "_signature",
          "type": "bytes"
        }
      ],
      "name": "verifyHealthData",
      "outputs": [
        {
          "internalType": "bool",
          "name": "",
          "type": "bool"
        }
      ],
      "stateMutability": "nonpayable",
      "type": "function"
    }
  ],
  "bytecode": "0x608060405234801561001057600080fd5b5033600073ffffffffffffffffffffffffffffffffffffffff168173ffffffffffffffffffffffffffffffffffffffff16036100845760006040517f1e4fbdf700000000000000000000000000000000000000000000000000000000815260040161007b91906101f6565b60405180910390fd5b610093816100f160201b60201c565b506001600260003373ffffffffffffffffffffffffffffffffffffffff1673ffffffffffffffffffffffffffffffffffffffff16815260200190815260200160002060006101000a81548160ff021916908315150217905550610211565b60008060009054906101000a900473ffffffffffffffffffffffffffffffffffffffff169050816000806101000a81548173ffffffffffffffffffffffffffffffffffffffff021916908373ffffffffffffffffffffffffffffffffffffffff1602179055508173ffffffffffffffffffffffffffffffffffffffff168173ffffffffffffffffffffffffffffffffffffffff167f8be0079c531659141344cd1fd0a4f28419497f9722a3daafe3b4186f6b6457e060405160405180910390a35050565b600073ffffffffffffffffffffffffffffffffffffffff82169050919050565b60006101e0826101b5565b9050919050565b6101f0816101d5565b82525050565b600060208201905061020b60008301846101e7565b92915050565b6111d9806102206000396000f3fe608060405234801561001057600080fd5b50600436106100935760003560e01c80639a891716116100665780639a8917161461010c578063a9cea4801461013c578063ca2dfd0a1461016c578063f2fde38b14610188578063f96b2fc0146101a457610093565b80634cb150a814610098578063715018a6146100c85780638da5cb5b146100d25780639000b3d6146100f0575b600080fd5b6100b260048036038101906100ad9190610b97565b6101d9565b6040516100bf9190610bf2565b60405180910390f35b6100d0610258565b005b6100da61026c565b6040516100e79190610c1c565b60405180910390f35b61010a60048036038101906101059190610c37565b610295565b005b61012660048036038101906101219190610c37565b61033b565b6040516101339190610bf2565b60405180910390f35b61015660048036038101906101519190610daa565b61035b565b6040516101639190610bf2565b60405180910390f35b61018660048036038101906101819190610c37565b6107a0565b005b6101a2600480360381019061019d9190610c37565b610846565b005b6101be60048036038101906101b99190610b97565b6108cc565b6040516101d096959493929190610e62565b60405180910390f35b6000600160008473ffffffffffffffffffffffffffffffffffffffff1673ffffffffffffffffffffffffffffffffffffffff16815260200190815260200160002060008367ffffffffffffffff1667ffffffffffffffff16815260200190815260200160002060010160009054906101000a900460ff16905092915050565b610260610992565b61026a6000610a19565b565b60008060009054906101000a900473ffffffffffffffffffffffffffffffffffffffff16905090565b61029d610992565b6001600260008373ffffffffffffffffffffffffffffffffffffffff1673ffffffffffffffffffffffffffffffffffffffff16815260200190815260200160002060006101000a81548160ff0219169083151502179055508073ffffffffffffffffffffffffffffffffffffffff167f6d05492139c5ea989514a5d2150c028041e5c087e2a39967f67dc7d2655adb8160405160405180910390a250565b60026020528060005260406000206000915054906101000a900460ff1681565b6000600260003373ffffffffffffffffffffffffffffffffffffffff1673ffffffffffffffffffffffffffffffffffffffff16815260200190815260200160002060009054906101000a900460ff166103e9576040517f08c379a00000000000000000000000000000000000000000000000000000000081526004016103e090610f20565b60405180910390fd5b600062015180846103fa9190610f6f565b905061c3508767ffffffffffffffff16111561044b576040517f08c379a000000000000000000000000000000000000000000000000000000000815260040161044290610fec565b60405180910390fd5b614e208667ffffffffffffffff16111561049a576040517f08c379a000000000000000000000000000000000000000000000000000000000815260040161049190611058565b60405180910390fd5b60288567ffffffffffffffff16101580156104c0575060dc8567ffffffffffffffff1611155b6104ff576040517f08c379a00000000000000000000000000000000000000000000000000000000081526004016104f6906110c4565b60405180910390fd5b6000835111610543576040517f08c379a000000000000000000000000000000000000000000000000000000000815260040161053a90611130565b60405180910390fd5b6040518060c001604052808867ffffffffffffffff1681526020018767ffffffffffffffff1681526020018667ffffffffffffffff1681526020018567ffffffffffffffff1681526020016001151581526020013373ffffffffffffffffffffffffffffffffffffffff16815250600160008a73ffffffffffffffffffffffffffffffffffffffff1673ffffffffffffffffffffffffffffffffffffffff16815260200190815260200160002060008367ffffffffffffffff1667ffffffffffffffff16815260200190815260200160002060008201518160000160006101000a81548167ffffffffffffffff021916908367ffffffffffffffff16021790555060208201518160000160086101000a81548167ffffffffffffffff021916908367ffffffffffffffff16021790555060408201518160000160106101000a81548167ffffffffffffffff021916908367ffffffffffffffff16021790555060608201518160000160186101000a81548167ffffffffffffffff021916908367ffffffffffffffff16021790555060808201518160010160006101000a81548160ff02191690831515021790555060a08201518160010160016101000a81548173ffffffffffffffffffffffffffffffffffffffff021916908373ffffffffffffffffffffffffffffffffffffffff1602179055509050508773ffffffffffffffffffffffffffffffffffffffff167f34f7e5bbd1d55dc2b935c61793fd57025ee6a3e9b18586b00983ed4fe31252838888888533604051610789959493929190611150565b60405180910390a260019150509695505050505050565b6107a8610992565b6000600260008373ffffffffffffffffffffffffffffffffffffffff1673ffffffffffffffffffffffffffffffffffffffff16815260200190815260200160002060006101000a81548160ff0219169083151502179055508073ffffffffffffffffffffffffffffffffffffffff167f44a3cd4eb5cc5748f6169df057b1cb2ae4c383e87cd94663c430e095d4cba42460405160405180910390a250565b61084e610992565b600073ffffffffffffffffffffffffffffffffffffffff168173ffffffffffffffffffffffffffffffffffffffff16036108c05760006040517f1e4fbdf70000000000000000000000000000000000000000000000000000000081526004016108b79190610c1c565b60405180910390fd5b6108c981610a19565b50565b6001602052816000526040600020602052806000526040600020600091509150508060000160009054906101000a900467ffffffffffffffff16908060000160089054906101000a900467ffffffffffffffff16908060000160109054906101000a900467ffffffffffffffff16908060000160189054906101000a900467ffffffffffffffff16908060010160009054906101000a900460ff16908060010160019054906101000a900473ffffffffffffffffffffffffffffffffffffffff16905086565b61099a610add565b73ffffffffffffffffffffffffffffffffffffffff166109b861026c565b73ffffffffffffffffffffffffffffffffffffffff1614610a17576109db610add565b6040517f118cdaa7000000000000000000000000000000000000000000000000000000008152600401610a0e9190610c1c565b60405180910390fd5b565b60008060009054906101000a900473ffffffffffffffffffffffffffffffffffffffff169050816000806101000a81548173ffffffffffffffffffffffffffffffffffffffff021916908373ffffffffffffffffffffffffffffffffffffffff1602179055508173ffffffffffffffffffffffffffffffffffffffff168173ffffffffffffffffffffffffffffffffffffffff167f8be0079c531659141344cd1fd0a4f28419497f9722a3daafe3b4186f6b6457e060405160405180910390a35050565b600033905090565b6000604051905090565b600080fd5b600080fd5b600073ffffffffffffffffffffffffffffffffffffffff82169050919050565b6000610b2482610af9565b9050919050565b610b3481610b19565b8114610b3f57600080fd5b50565b600081359050610b5181610b2b565b92915050565b600067ffffffffffffffff82169050919050565b610b7481610b57565b8114610b7f57600080fd5b50565b600081359050610b9181610b6b565b92915050565b60008060408385031215610bae57610bad610aef565b5b6000610bbc85828601610b42565b9250506020610bcd85828601610b82565b9150509250929050565b60008115159050919050565b610bec81610bd7565b82525050565b6000602082019050610c076000830184610be3565b92915050565b610c1681610b19565b82525050565b6000602082019050610c316000830184610c0d565b92915050565b600060208284031215610c4d57610c4c610aef565b5b6000610c5b84828501610b42565b91505092915050565b600080fd5b600080fd5b6000601f19601f8301169050919050565b7f4e487b7100000000000000000000000000000000000000000000000000000000600052604160045260246000fd5b610cb782610c6e565b810181811067ffffffffffffffff82111715610cd657610cd5610c7f565b5b80604052505050565b6000610ce9610ae5565b9050610cf58282610cae565b919050565b600067ffffffffffffffff821115610d1557610d14610c7f565b5b610d1e82610c6e565b9050602081019050919050565b82818337600083830152505050565b6000610d4d610d4884610cfa565b610cdf565b905082815260208101848484011115610d6957610d68610c69565b5b610d74848285610d2b565b509392505050565b600082601f830112610d9157610d90610c64565b5b8135610da1848260208601610d3a565b91505092915050565b60008060008060008060c08789031215610dc757610dc6610aef565b5b6000610dd589828a01610b42565b9650506020610de689828a01610b82565b9550506040610df789828a01610b82565b9450506060610e0889828a01610b82565b9350506080610e1989828a01610b82565b92505060a087013567ffffffffffffffff811115610e3a57610e39610af4565b5b610e4689828a01610d7c565b9150509295509295509295565b610e5c81610b57565b82525050565b600060c082019050610e776000830189610e53565b610e846020830188610e53565b610e916040830187610e53565b610e9e6060830186610e53565b610eab6080830185610be3565b610eb860a0830184610c0d565b979650505050505050565b600082825260208201905092915050565b7f4e6f7420617574686f72697a6564207665726966696572000000000000000000600082015250565b6000610f0a601783610ec3565b9150610f1582610ed4565b602082019050919050565b60006020820190508181036000830152610f3981610efd565b9050919050565b7f4e487b7100000000000000000000000000000000000000000000000000000000600052601260045260246000fd5b6000610f7a82610b57565b9150610f8583610b57565b925082610f9557610f94610f40565b5b828204905092915050565b7f496e76616c696420737465707300000000000000000000000000000000000000600082015250565b6000610fd6600d83610ec3565b9150610fe182610fa0565b602082019050919050565b6000602082019050818103600083015261100581610fc9565b9050919050565b7f496e76616c69642063616c6f7269657300000000000000000000000000000000600082015250565b6000611042601083610ec3565b915061104d8261100c565b602082019050919050565b6000602082019050818103600083015261107181611035565b9050919050565b7f496e76616c696420686561727420726174650000000000000000000000000000600082015250565b60006110ae601283610ec3565b91506110b982611078565b602082019050919050565b600060208201905081810360008301526110dd816110a1565b9050919050565b7f5369676e61747572652072657175697265640000000000000000000000000000600082015250565b600061111a601283610ec3565b9150611125826110e4565b602082019050919050565b600060208201905081810360008301526111498161110d565b9050919050565b600060a0820190506111656000830188610e53565b6111726020830187610e53565b61117f6040830186610e53565b61118c6060830185610e53565b6111996080830184610c0d565b969550505050505056fea264697066735822122070f558485ea3588b3f8afdb48991a01284bc5eec52f7a87fa4c1ee0f7360326e64736f6c634300081c0033",
  "linkReferences": {},
  "deployedLinkReferences": {}
}